{
  "contractName": "covidVaccineRegister",
  "abi": [
    {
      "inputs": [
        {
          "internalType": "uint256",
          "name": "",
          "type": "uint256"
        }
      ],
      "name": "vaccinationRecords",
      "outputs": [
        {
          "internalType": "string",
          "name": "Name",
          "type": "string"
        },
        {
          "internalType": "string",
          "name": "Surname",
          "type": "string"
        },
        {
          "internalType": "string",
          "name": "VaccinationDate",
          "type": "string"
        },
        {
          "internalType": "string",
          "name": "VaccineName",
          "type": "string"
        },
        {
          "internalType": "string",
          "name": "VaccinationPlace",
          "type": "string"
        },
        {
          "internalType": "address",
          "name": "added_by",
          "type": "address"
        }
      ],
      "stateMutability": "view",
      "type": "function"
    },
    {
      "inputs": [
        {
          "internalType": "string",
          "name": "_Name",
          "type": "string"
        },
        {
          "internalType": "string",
          "name": "_Surname",
          "type": "string"
        },
        {
          "internalType": "string",
          "name": "_VaccinationDate",
          "type": "string"
        },
        {
          "internalType": "string",
          "name": "_VaccineName",
          "type": "string"
        },
        {
          "internalType": "string",
          "name": "_VaccinationPlace",
          "type": "string"
        }
      ],
      "name": "createVaccinationRecord",
      "outputs": [
        {
          "internalType": "uint256",
          "name": "",
          "type": "uint256"
        }
      ],
      "stateMutability": "nonpayable",
      "type": "function"
    },
    {
      "inputs": [],
      "name": "getNumberOfVaccinations",
      "outputs": [
        {
          "internalType": "uint256",
          "name": "",
          "type": "uint256"
        }
      ],
      "stateMutability": "view",
      "type": "function"
    }
  ],
  "bytecode": "0x608060405234801561001057600080fd5b50610c37806100206000396000f3fe608060405234801561001057600080fd5b50600436106100415760003560e01c8063195812d0146100465780631ea6ddea146100765780637b05e18714610094575b600080fd5b610060600480360381019061005b919061083d565b6100c9565b60405161006d9190610a6f565b60405180910390f35b61007e610406565b60405161008b9190610a6f565b60405180910390f35b6100ae60048036038101906100a99190610942565b610412565b6040516100c0969594939291906109eb565b60405180910390f35b6000806040518060c001604052808d8d8080601f016020809104026020016040519081016040528093929190818152602001838380828437600081840152601f19601f8201169050808301925050505050505081526020018b8b8080601f016020809104026020016040519081016040528093929190818152602001838380828437600081840152601f19601f82011690508083019250505050505050815260200189898080601f016020809104026020016040519081016040528093929190818152602001838380828437600081840152601f19601f82011690508083019250505050505050815260200187878080601f016020809104026020016040519081016040528093929190818152602001838380828437600081840152601f19601f82011690508083019250505050505050815260200185858080601f016020809104026020016040519081016040528093929190818152602001838380828437600081840152601f19601f8201169050808301925050505050505081526020013373ffffffffffffffffffffffffffffffffffffffff16815250908060018154018082558091505060019003906000526020600020906006020160009091909190915060008201518160000190805190602001906102a8929190610726565b5060208201518160010190805190602001906102c5929190610726565b5060408201518160020190805190602001906102e2929190610726565b5060608201518160030190805190602001906102ff929190610726565b50608082015181600401908051906020019061031c929190610726565b5060a08201518160050160006101000a81548173ffffffffffffffffffffffffffffffffffffffff021916908373ffffffffffffffffffffffffffffffffffffffff1602179055505050600060013073ffffffffffffffffffffffffffffffffffffffff16631ea6ddea6040518163ffffffff1660e01b815260040160206040518083038186803b1580156103b057600080fd5b505afa1580156103c4573d6000803e3d6000fd5b505050506040513d601f19601f820116820180604052508101906103e8919061096b565b6103f29190610aa6565b9050809150509a9950505050505050505050565b60008080549050905090565b6000818154811061042257600080fd5b906000526020600020906006020160009150905080600001805461044590610b49565b80601f016020809104026020016040519081016040528092919081815260200182805461047190610b49565b80156104be5780601f10610493576101008083540402835291602001916104be565b820191906000526020600020905b8154815290600101906020018083116104a157829003601f168201915b5050505050908060010180546104d390610b49565b80601f01602080910402602001604051908101604052809291908181526020018280546104ff90610b49565b801561054c5780601f106105215761010080835404028352916020019161054c565b820191906000526020600020905b81548152906001019060200180831161052f57829003601f168201915b50505050509080600201805461056190610b49565b80601f016020809104026020016040519081016040528092919081815260200182805461058d90610b49565b80156105da5780601f106105af576101008083540402835291602001916105da565b820191906000526020600020905b8154815290600101906020018083116105bd57829003601f168201915b5050505050908060030180546105ef90610b49565b80601f016020809104026020016040519081016040528092919081815260200182805461061b90610b49565b80156106685780601f1061063d57610100808354040283529160200191610668565b820191906000526020600020905b81548152906001019060200180831161064b57829003601f168201915b50505050509080600401805461067d90610b49565b80601f01602080910402602001604051908101604052809291908181526020018280546106a990610b49565b80156106f65780601f106106cb576101008083540402835291602001916106f6565b820191906000526020600020905b8154815290600101906020018083116106d957829003601f168201915b5050505050908060050160009054906101000a900473ffffffffffffffffffffffffffffffffffffffff16905086565b82805461073290610b49565b90600052602060002090601f016020900481019282610754576000855561079b565b82601f1061076d57805160ff191683800117855561079b565b8280016001018555821561079b579182015b8281111561079a57825182559160200191906001019061077f565b5b5090506107a891906107ac565b5090565b5b808211156107c55760008160009055506001016107ad565b5090565b60008083601f8401126107db57600080fd5b8235905067ffffffffffffffff8111156107f457600080fd5b60208301915083600182028301111561080c57600080fd5b9250929050565b60008135905061082281610bea565b92915050565b60008151905061083781610bea565b92915050565b60008060008060008060008060008060a08b8d03121561085c57600080fd5b60008b013567ffffffffffffffff81111561087657600080fd5b6108828d828e016107c9565b9a509a505060208b013567ffffffffffffffff8111156108a157600080fd5b6108ad8d828e016107c9565b985098505060408b013567ffffffffffffffff8111156108cc57600080fd5b6108d88d828e016107c9565b965096505060608b013567ffffffffffffffff8111156108f757600080fd5b6109038d828e016107c9565b945094505060808b013567ffffffffffffffff81111561092257600080fd5b61092e8d828e016107c9565b92509250509295989b9194979a5092959850565b60006020828403121561095457600080fd5b600061096284828501610813565b91505092915050565b60006020828403121561097d57600080fd5b600061098b84828501610828565b91505092915050565b61099d81610ada565b82525050565b60006109ae82610a8a565b6109b88185610a95565b93506109c8818560208601610b16565b6109d181610bd9565b840191505092915050565b6109e581610b0c565b82525050565b600060c0820190508181036000830152610a0581896109a3565b90508181036020830152610a1981886109a3565b90508181036040830152610a2d81876109a3565b90508181036060830152610a4181866109a3565b90508181036080830152610a5581856109a3565b9050610a6460a0830184610994565b979650505050505050565b6000602082019050610a8460008301846109dc565b92915050565b600081519050919050565b600082825260208201905092915050565b6000610ab182610b0c565b9150610abc83610b0c565b925082821015610acf57610ace610b7b565b5b828203905092915050565b6000610ae582610aec565b9050919050565b600073ffffffffffffffffffffffffffffffffffffffff82169050919050565b6000819050919050565b60005b83811015610b34578082015181840152602081019050610b19565b83811115610b43576000848401525b50505050565b60006002820490506001821680610b6157607f821691505b60208210811415610b7557610b74610baa565b5b50919050565b7f4e487b7100000000000000000000000000000000000000000000000000000000600052601160045260246000fd5b7f4e487b7100000000000000000000000000000000000000000000000000000000600052602260045260246000fd5b6000601f19601f8301169050919050565b610bf381610b0c565b8114610bfe57600080fd5b5056fea264697066735822122085ecf0c33e50f073e141ba4c35a7333b576d02c1322aa4a0fd65d0ce1c6e751c64736f6c63430008040033",
  "immutableReferences": {},
  "source": "pragma solidity ^0.8.4;\r\n\r\ncontract covidVaccineRegister{\r\n\r\n    struct VaccinationRecord {\r\n      string Name;\r\n      string Surname;\r\n      string VaccinationDate;\r\n      string VaccineName;\r\n      string VaccinationPlace;\r\n      address added_by;\r\n    }\r\n    VaccinationRecord[] public vaccinationRecords;\r\n\r\n    function createVaccinationRecord(string calldata _Name, string calldata _Surname, string calldata _VaccinationDate,  string calldata _VaccineName, string calldata _VaccinationPlace ) external returns(uint){\r\n        // get an instance of a Day1User using the input variables and push into the array of day1_users\r\n    vaccinationRecords.push(VaccinationRecord(_Name, _Surname,_VaccinationDate,_VaccineName,_VaccinationPlace, msg.sender)) ;\r\n    //return the id\r\n    uint id = this.getNumberOfVaccinations() - 1;\r\n    // return the user id\r\n    return id ; \r\n    }\r\n\r\n    function getNumberOfVaccinations() external view returns(uint) {\r\n    // return the length of the vaccinationRecords array\r\n    return vaccinationRecords.length;\r\n    }\r\n\r\n    //function getVaccinationRecord(uint index) external view returns (calldata vaccinationRecords)){\r\n    //Can except value\r\n    //Retrieves a particular instance of VaccinationRecord from the array vaccinationRecords given a valid index (0 <= index < length of the 'vaccinationRecords' array)\r\n    //Throws an exception if an invalid index is passed to the function (Hint: to get the length of the 'vaccinationRecords' array, use the getNumberOfVaccinations function you created in the previous step)\r\n    //if( index < (this.getNumberOfVaccinations() - 1) && index >= 0){\r\n    //  return vaccinationRecords[index];\r\n   // }\r\n    \r\n  //}\r\n\r\n}\r\n\r\n",
  "sourcePath": "C:/Users/rswal/Dev/fintech2021/Vaccine-tracker/contracts/cvt.sol",
  "compiler": {
    "name": "solc",
    "version": "0.8.4+commit.c7e474f2.Emscripten.clang"
  },
  "schemaVersion": "3.4.0",
  "updatedAt": "2021-05-06T08:35:26.366Z",
  "devdoc": {
    "kind": "dev",
    "methods": {},
    "version": 1
  },
  "userdoc": {
    "kind": "user",
    "methods": {},
    "version": 1
  }
}