{
  "contractName": "Day1Registry",
  "abi": [
    {
      "inputs": [
        {
          "internalType": "uint256",
          "name": "",
          "type": "uint256"
        }
      ],
      "name": "day1_users",
      "outputs": [
        {
          "internalType": "string",
          "name": "name",
          "type": "string"
        },
        {
          "internalType": "string",
          "name": "surname",
          "type": "string"
        },
        {
          "internalType": "address",
          "name": "added_by",
          "type": "address"
        }
      ],
      "stateMutability": "view",
      "type": "function",
      "constant": true
    },
    {
      "inputs": [
        {
          "internalType": "string",
          "name": "_name",
          "type": "string"
        },
        {
          "internalType": "string",
          "name": "_surname",
          "type": "string"
        }
      ],
      "name": "registerUser",
      "outputs": [
        {
          "internalType": "uint256",
          "name": "",
          "type": "uint256"
        }
      ],
      "stateMutability": "nonpayable",
      "type": "function"
    },
    {
      "inputs": [],
      "name": "getNumberOfUsers",
      "outputs": [
        {
          "internalType": "uint256",
          "name": "",
          "type": "uint256"
        }
      ],
      "stateMutability": "view",
      "type": "function",
      "constant": true
    }
  ],
  "bytecode": "0x608060405234801561001057600080fd5b50610880806100206000396000f3fe608060405234801561001057600080fd5b50600436106100415760003560e01c80631d2e4afd146100465780634d00928814610076578063c2a502a314610094575b600080fd5b610060600480360381019061005b9190610555565b6100c6565b60405161006d91906106b8565b60405180910390f35b61007e6102c8565b60405161008b91906106b8565b60405180910390f35b6100ae60048036038101906100a991906105ca565b6102d4565b6040516100bd93929190610673565b60405180910390f35b600080604051806060016040528087878080601f016020809104026020016040519081016040528093929190818152602001838380828437600081840152601f19601f82011690508083019250505050505050815260200185858080601f016020809104026020016040519081016040528093929190818152602001838380828437600081840152601f19601f8201169050808301925050505050505081526020013373ffffffffffffffffffffffffffffffffffffffff16815250908060018154018082558091505060019003906000526020600020906003020160009091909190915060008201518160000190805190602001906101c792919061043e565b5060208201518160010190805190602001906101e492919061043e565b5060408201518160020160006101000a81548173ffffffffffffffffffffffffffffffffffffffff021916908373ffffffffffffffffffffffffffffffffffffffff1602179055505050600060013073ffffffffffffffffffffffffffffffffffffffff16634d0092886040518163ffffffff1660e01b815260040160206040518083038186803b15801561027857600080fd5b505afa15801561028c573d6000803e3d6000fd5b505050506040513d601f19601f820116820180604052508101906102b091906105f3565b6102ba91906106ef565b905080915050949350505050565b60008080549050905090565b600081815481106102e457600080fd5b906000526020600020906003020160009150905080600001805461030790610792565b80601f016020809104026020016040519081016040528092919081815260200182805461033390610792565b80156103805780601f1061035557610100808354040283529160200191610380565b820191906000526020600020905b81548152906001019060200180831161036357829003601f168201915b50505050509080600101805461039590610792565b80601f01602080910402602001604051908101604052809291908181526020018280546103c190610792565b801561040e5780601f106103e35761010080835404028352916020019161040e565b820191906000526020600020905b8154815290600101906020018083116103f157829003601f168201915b5050505050908060020160009054906101000a900473ffffffffffffffffffffffffffffffffffffffff16905083565b82805461044a90610792565b90600052602060002090601f01602090048101928261046c57600085556104b3565b82601f1061048557805160ff19168380011785556104b3565b828001600101855582156104b3579182015b828111156104b2578251825591602001919060010190610497565b5b5090506104c091906104c4565b5090565b5b808211156104dd5760008160009055506001016104c5565b5090565b60008083601f8401126104f357600080fd5b8235905067ffffffffffffffff81111561050c57600080fd5b60208301915083600182028301111561052457600080fd5b9250929050565b60008135905061053a81610833565b92915050565b60008151905061054f81610833565b92915050565b6000806000806040858703121561056b57600080fd5b600085013567ffffffffffffffff81111561058557600080fd5b610591878288016104e1565b9450945050602085013567ffffffffffffffff8111156105b057600080fd5b6105bc878288016104e1565b925092505092959194509250565b6000602082840312156105dc57600080fd5b60006105ea8482850161052b565b91505092915050565b60006020828403121561060557600080fd5b600061061384828501610540565b91505092915050565b61062581610723565b82525050565b6000610636826106d3565b61064081856106de565b935061065081856020860161075f565b61065981610822565b840191505092915050565b61066d81610755565b82525050565b6000606082019050818103600083015261068d818661062b565b905081810360208301526106a1818561062b565b90506106b0604083018461061c565b949350505050565b60006020820190506106cd6000830184610664565b92915050565b600081519050919050565b600082825260208201905092915050565b60006106fa82610755565b915061070583610755565b925082821015610718576107176107c4565b5b828203905092915050565b600061072e82610735565b9050919050565b600073ffffffffffffffffffffffffffffffffffffffff82169050919050565b6000819050919050565b60005b8381101561077d578082015181840152602081019050610762565b8381111561078c576000848401525b50505050565b600060028204905060018216806107aa57607f821691505b602082108114156107be576107bd6107f3565b5b50919050565b7f4e487b7100000000000000000000000000000000000000000000000000000000600052601160045260246000fd5b7f4e487b7100000000000000000000000000000000000000000000000000000000600052602260045260246000fd5b6000601f19601f8301169050919050565b61083c81610755565b811461084757600080fd5b5056fea264697066735822122026a3fb5d104fafb57a73c1673a0c8f4fffea7028c64d9f5e222eea5e4d1786c164736f6c63430008040033",
  "immutableReferences": {},
  "source": "pragma solidity ^0.8.4;\r\n\r\ncontract Day1Registry {\r\n  // define the struct Day1User\r\n  struct Day1User {\r\n    string name;\r\n    string surname;\r\n    address added_by;\r\n  }\r\n\r\n  // define the array of users\r\n  Day1User[] public day1_users;\r\n\r\n  function registerUser(string calldata _name, string calldata _surname) external returns(uint){\r\n    // get an instance of a Day1User using the input variables and push into the array of day1_users, returns the id\r\n    // get an instance of a Day1User using the input variables and push into the array of day1_users\r\n    day1_users.push(Day1User(_name, _surname, msg.sender)) ;\r\n    //return the id\r\n    uint id = this.getNumberOfUsers() - 1;\r\n    // return the user id\r\n    return id ; \r\n    }\r\n\r\n  function getNumberOfUsers() external view returns(uint) {\r\n    // return the length of the day1_users array\r\n    return day1_users.length;\r\n  }\r\n\r\n}\r\n\r\n\r\n",
  "sourcePath": "C:/Users/rswal/Dev/fintech2021/Vaccine-tracker/contracts/Day1Registry.sol",
  "compiler": {
    "name": "solc",
    "version": "0.8.4+commit.c7e474f2.Emscripten.clang"
  },
  "schemaVersion": "3.4.0",
  "updatedAt": "2021-05-06T04:51:33.266Z",
  "networkType": "ethereum",
  "devdoc": {
    "kind": "dev",
    "methods": {},
    "version": 1
  },
  "userdoc": {
    "kind": "user",
    "methods": {},
    "version": 1
  }
}